{
  "contractName": "Portfolio",
  "abi": [
    {
      "constant": true,
      "inputs": [
        {
          "name": "",
          "type": "address"
        }
      ],
      "name": "metadata",
      "outputs": [
        {
          "name": "requiresPermission",
          "type": "bool"
        },
        {
          "name": "path",
          "type": "bytes32"
        }
      ],
      "payable": false,
      "stateMutability": "view",
      "type": "function"
    },
    {
      "constant": true,
      "inputs": [],
      "name": "owner",
      "outputs": [
        {
          "name": "",
          "type": "address"
        }
      ],
      "payable": false,
      "stateMutability": "view",
      "type": "function"
    },
    {
      "inputs": [],
      "payable": false,
      "stateMutability": "nonpayable",
      "type": "constructor"
    },
    {
      "anonymous": false,
      "inputs": [
        {
          "indexed": true,
          "name": "_reference",
          "type": "address"
        }
      ],
      "name": "MetaAdded",
      "type": "event"
    },
    {
      "anonymous": false,
      "inputs": [
        {
          "indexed": true,
          "name": "_reference",
          "type": "address"
        }
      ],
      "name": "MetaRemoved",
      "type": "event"
    }
  ],
  "bytecode": "0x608060405234801561001057600080fd5b50336000806101000a81548173ffffffffffffffffffffffffffffffffffffffff021916908373ffffffffffffffffffffffffffffffffffffffff160217905550610194806100606000396000f30060806040526004361061004c576000357c0100000000000000000000000000000000000000000000000000000000900463ffffffff1680632ba21572146100515780638da5cb5b146100bb575b600080fd5b34801561005d57600080fd5b50610092600480360381019080803573ffffffffffffffffffffffffffffffffffffffff169060200190929190505050610112565b604051808315151515815260200182600019166000191681526020019250505060405180910390f35b3480156100c757600080fd5b506100d0610143565b604051808273ffffffffffffffffffffffffffffffffffffffff1673ffffffffffffffffffffffffffffffffffffffff16815260200191505060405180910390f35b60016020528060005260406000206000915090508060000160009054906101000a900460ff16908060010154905082565b6000809054906101000a900473ffffffffffffffffffffffffffffffffffffffff16815600a165627a7a72305820d6041f99b7a6bc8cb252d73baa93678c3b48ec3d8b357ab99a9c22117aac18f40029",
  "source": "pragma solidity ^0.4.23;\n\n/* import \"./EIP998.sol\"; */\n/* is EIP998  */\n\n/// @title Portfolio: Composable resume containing weighted peer assessed skills & attestations\n/// @author Trevor Clarke (github.com/trevorjtclarke)\n/// @dev The main portfolio contract contains logic for composable NFT containing extra references\ncontract Portfolio {\n  address public owner;\n  /// @dev generation dictates different \"rounds\" of access to minting more skills\n  int8 generation;\n  /// @dev keeps track of key/value metadata references\n  ///   Used for things like IPFS JSON, png, etc\n  mapping(address => Meta) public metadata;\n\n  /// @dev TODO: change to use composable FNs\n  /* mapping(address => Skill) public skills; */\n\n  /// @dev references to metadata\n  ///   each reference points to a hash of data stored in IPFS\n  struct Meta {\n    bool requiresPermission;\n    bytes32 path;\n  }\n\n  /// @dev constructor, assigns ownership\n  constructor() public {\n    owner = msg.sender;\n  }\n\n  /// @dev Throws if called by any account other than the owner.\n  modifier onlyOwner() {\n    require(msg.sender == owner);\n    _;\n  }\n\n  //////////////////////////////////////////\n  /// Events\n  //////////////////////////////////////////\n  event MetaAdded(address indexed _reference);\n  event MetaRemoved(address indexed _reference);\n\n\n  // TODO:\n  // - getSkill\n  // - getAllSkills\n  // - mintSkill\n  // - getMeta\n  // - addMetaItem\n  // - sendMetaItem\n\n}\n",
  "sourcePath": "/Users/trevorclarke/Github/portfolio/contracts/Portfolio.sol",
  "compiler": {
    "name": "solc",
    "version": "0.4.24+commit.e67f0147.Emscripten.clang"
  },
  "schemaVersion": "2.0.1",
  "updatedAt": "2018-07-07T23:45:24.789Z"
}