{
  "contractName": "Portfolio",
  "abi": [
    {
      "constant": true,
      "inputs": [
        {
          "name": "",
          "type": "address"
        }
      ],
      "name": "metadata",
      "outputs": [
        {
          "name": "requiresPermission",
          "type": "bool"
        },
        {
          "name": "path",
          "type": "bytes32"
        },
        {
          "name": "source",
          "type": "uint8"
        }
      ],
      "payable": false,
      "stateMutability": "view",
      "type": "function"
    },
    {
      "constant": true,
      "inputs": [],
      "name": "owner",
      "outputs": [
        {
          "name": "",
          "type": "address"
        }
      ],
      "payable": false,
      "stateMutability": "view",
      "type": "function"
    },
    {
      "inputs": [],
      "payable": false,
      "stateMutability": "nonpayable",
      "type": "constructor"
    },
    {
      "anonymous": false,
      "inputs": [
        {
          "indexed": true,
          "name": "_reference",
          "type": "address"
        }
      ],
      "name": "MetaAdded",
      "type": "event"
    },
    {
      "anonymous": false,
      "inputs": [
        {
          "indexed": true,
          "name": "_reference",
          "type": "address"
        }
      ],
      "name": "MetaUpdated",
      "type": "event"
    },
    {
      "anonymous": false,
      "inputs": [
        {
          "indexed": true,
          "name": "_reference",
          "type": "address"
        }
      ],
      "name": "MetaRemoved",
      "type": "event"
    },
    {
      "constant": true,
      "inputs": [
        {
          "name": "_reference",
          "type": "address"
        }
      ],
      "name": "getMetaItem",
      "outputs": [
        {
          "name": "",
          "type": "bytes32"
        },
        {
          "name": "",
          "type": "uint8"
        }
      ],
      "payable": false,
      "stateMutability": "view",
      "type": "function"
    },
    {
      "constant": false,
      "inputs": [
        {
          "name": "_reference",
          "type": "address"
        }
      ],
      "name": "removeMeta",
      "outputs": [],
      "payable": false,
      "stateMutability": "nonpayable",
      "type": "function"
    },
    {
      "constant": false,
      "inputs": [
        {
          "name": "_reference",
          "type": "address"
        },
        {
          "name": "_path",
          "type": "bytes32"
        },
        {
          "name": "_source",
          "type": "uint8"
        },
        {
          "name": "_permission",
          "type": "bool"
        }
      ],
      "name": "setMetaItem",
      "outputs": [],
      "payable": false,
      "stateMutability": "nonpayable",
      "type": "function"
    }
  ],
  "bytecode": "0x608060405234801561001057600080fd5b50336000806101000a81548173ffffffffffffffffffffffffffffffffffffffff021916908373ffffffffffffffffffffffffffffffffffffffff16021790555061089f806100606000396000f30060806040526004361061006c576000357c0100000000000000000000000000000000000000000000000000000000900463ffffffff168062011c0014610071578063274b4949146100db5780632ba215721461011e5780638da5cb5b14610195578063dd8ae27a146101ec575b600080fd5b34801561007d57600080fd5b506100d9600480360381019080803573ffffffffffffffffffffffffffffffffffffffff1690602001909291908035600019169060200190929190803560ff169060200190929190803515159060200190929190505050610258565b005b3480156100e757600080fd5b5061011c600480360381019080803573ffffffffffffffffffffffffffffffffffffffff169060200190929190505050610596565b005b34801561012a57600080fd5b5061015f600480360381019080803573ffffffffffffffffffffffffffffffffffffffff169060200190929190505050610666565b604051808415151515815260200183600019166000191681526020018260ff1660ff168152602001935050505060405180910390f35b3480156101a157600080fd5b506101aa6106aa565b604051808273ffffffffffffffffffffffffffffffffffffffff1673ffffffffffffffffffffffffffffffffffffffff16815260200191505060405180910390f35b3480156101f857600080fd5b5061022d600480360381019080803573ffffffffffffffffffffffffffffffffffffffff1690602001909291905050506106cf565b6040518083600019166000191681526020018260ff1660ff1681526020019250505060405180910390f35b6000610262610849565b6000809054906101000a900473ffffffffffffffffffffffffffffffffffffffff1673ffffffffffffffffffffffffffffffffffffffff163373ffffffffffffffffffffffffffffffffffffffff161415156102bd57600080fd5b60008673ffffffffffffffffffffffffffffffffffffffff161415151561034c576040517f08c379a00000000000000000000000000000000000000000000000000000000081526004018080602001828103825260118152602001807f5265666572656e6365206d697373696e6700000000000000000000000000000081525060200191505060405180910390fd5b60006001028560001916141515156103cc576040517f08c379a000000000000000000000000000000000000000000000000000000000815260040180806020018281038252600c8152602001807f50617468206d697373696e67000000000000000000000000000000000000000081525060200191505060405180910390fd5b600091506000600102600160008873ffffffffffffffffffffffffffffffffffffffff1673ffffffffffffffffffffffffffffffffffffffff168152602001908152602001600020600101546000191614151561042857600191505b848160200190600019169081600019168152505060018417816040019060ff16908160ff16815250508281600001901515908115158152505080600160008873ffffffffffffffffffffffffffffffffffffffff1673ffffffffffffffffffffffffffffffffffffffff16815260200190815260200160002060008201518160000160006101000a81548160ff0219169083151502179055506020820151816001019060001916905560408201518160020160006101000a81548160ff021916908360ff16021790555090505060011515821515141561054a578573ffffffffffffffffffffffffffffffffffffffff167fcc727825971b0490afd30aa92b8b3128f7e1ff7f4e11de71b0fcca781842421b60405160405180910390a261058e565b8573ffffffffffffffffffffffffffffffffffffffff167f0ce5104d6a845e2ea54410f5e5afd8c01463ab3b1a12f2035c55831857d7b26660405160405180910390a25b505050505050565b6000809054906101000a900473ffffffffffffffffffffffffffffffffffffffff1673ffffffffffffffffffffffffffffffffffffffff163373ffffffffffffffffffffffffffffffffffffffff161415156105f157600080fd5b600160008273ffffffffffffffffffffffffffffffffffffffff1673ffffffffffffffffffffffffffffffffffffffff168152602001908152602001600020600080820160006101000a81549060ff021916905560018201600090556002820160006101000a81549060ff0219169055505050565b60016020528060005260406000206000915090508060000160009054906101000a900460ff16908060010154908060020160009054906101000a900460ff16905083565b6000809054906101000a900473ffffffffffffffffffffffffffffffffffffffff1681565b6000806106da610849565b836000600102600160008373ffffffffffffffffffffffffffffffffffffffff1673ffffffffffffffffffffffffffffffffffffffff16815260200190815260200160002060010154600019161415151561079d576040517f08c379a00000000000000000000000000000000000000000000000000000000081526004018080602001828103825260168152602001807f4d657461206974656d20646f65736e742065786973740000000000000000000081525060200191505060405180910390fd5b600160008673ffffffffffffffffffffffffffffffffffffffff1673ffffffffffffffffffffffffffffffffffffffff168152602001908152602001600020606060405190810160405290816000820160009054906101000a900460ff161515151581526020016001820154600019166000191681526020016002820160009054906101000a900460ff1660ff1660ff1681525050915081602001518260400151935093505050915091565b60606040519081016040528060001515815260200160008019168152602001600060ff16815250905600a165627a7a72305820a8c8ab6b4c1e1628a4b16a274fa9d9d66d9e16edcd6ce8fe23668ad3da8930400029",
  "source": "pragma solidity ^0.4.23;\n\n/* import \"./EIP998.sol\"; */\n/* is EIP998  */\n\n/// @title Portfolio: Composable resume containing weighted peer assessed skills & attestations\n/// @author Trevor Clarke (github.com/trevorjtclarke)\n/// @dev The main portfolio contract contains logic for composable NFT containing extra references\ncontract Portfolio {\n  address public owner;\n  /// @dev generation dictates different \"rounds\" of access to minting more skills\n  int8 generation;\n  /// @dev keeps track of key/value metadata references\n  ///   Used for things like IPFS JSON, png, etc\n  mapping(address => Meta) public metadata;\n\n  /// @dev TODO: change to use composable FNs\n  /* mapping(address => Skill) public skills; */\n\n  /// @dev references to metadata\n  ///   each reference points to a hash of data stored in IPFS\n  struct Meta {\n    /// @dev defines if user needs to get access to view info\n    ///   useful if you don't want people getting your email info... argh bots\n    bool requiresPermission;\n    /// @dev the folder where data is stored (\"folder/file.type\")\n    bytes32 path;\n    /// @dev the source type of data (IPFS, Storj, etc)\n    ///   Example: 0 = null, 1 = IPFS, etc\n    uint8 source;\n  }\n\n  /// @dev constructor, assigns ownership\n  constructor() public {\n    owner = msg.sender;\n  }\n\n\n  //////////////////////////////////////////\n  /// Modifiers\n  //////////////////////////////////////////\n\n  /// @dev Throws if called by any account other than the owner.\n  modifier onlyOwner() {\n    require(msg.sender == owner);\n    _;\n  }\n\n  /// @dev Checks if the reference exists within known data\n  modifier hasMetaRef(address _reference) {\n    /* Meta memory m = metadata[_reference]; */\n    require(metadata[_reference].path != 0, 'Meta item doesnt exist');\n    _;\n  }\n\n  //////////////////////////////////////////\n  /// Events\n  //////////////////////////////////////////\n  event MetaAdded(address indexed _reference);\n  event MetaUpdated(address indexed _reference);\n  event MetaRemoved(address indexed _reference);\n\n  //////////////////////////////////////////\n  /// Functions\n  //////////////////////////////////////////\n\n  /// @dev Returns single meta item\n  function getMetaItem(address _reference)\n    constant hasMetaRef(_reference) public returns(bytes32, uint8) {\n      Meta memory m = metadata[_reference];\n      // TODO: Check if access is acceptable\n      return (m.path, m.source);\n    }\n\n  /// @dev Removes a single meta item\n  function removeMeta (address _reference)\n    onlyOwner public {\n      delete metadata[_reference];\n    }\n\n  /// @dev Adds/updates metadata reference to contract data\n  ///   allows updates to previously stored meta item\n  ///   source value of 0 is a null reference\n  function setMetaItem(address _reference, bytes32 _path, uint8 _source, bool _permission)\n    onlyOwner public {\n      require(_reference != 0, 'Reference missing');\n      require(_path != 0, 'Path missing');\n      bool exists = false;\n\n      // check if this is update\n      if (metadata[_reference].path != 0) exists = true;\n\n      // Assign new meta item\n      Meta memory metaItem;\n      metaItem.path = _path;\n      metaItem.source = _source | 1;\n      metaItem.requiresPermission = _permission;\n      metadata[_reference] = metaItem;\n\n      if (exists == true) {\n        emit MetaUpdated(_reference);\n      } else {\n        emit MetaAdded(_reference);\n      }\n    }\n\n}\n",
  "sourcePath": "/Users/trevorclarke/Github/portfolio/contracts/Portfolio.sol",
  "compiler": {
    "name": "solc",
    "version": "0.4.24+commit.e67f0147.Emscripten.clang"
  },
  "schemaVersion": "2.0.1",
  "updatedAt": "2018-07-08T03:50:14.232Z"
}